:020000040800F2
:10000000B89A00209D010008653200086732000898
:100010006B3200086D3200086F32000800000000EB
:100020000000000000000000000000007132000825
:1000300073320008000000007532000879320008B1
:10004000B7010008B7010008B7010008E72B000856
:10005000B7010008B7010008B7010008B7010008A0
:10006000B7010008B7010008B7010008B701000890
:10007000B7010008B7010008B7010008B701000880
:10008000B7010008B7010008B7010008B701000870
:10009000B7010008B7010008B7010008B701000860
:1000A000B7010008B7010008B7010008B701000850
:1000B000B7010008B7010008B7010008B701000840
:1000C000B7010008B7010008B7010008B701000830
:1000D000B7010008131F0008251F00083D1F000876
:1000E000B7010008092C0008B7010008B701000893
:1000F000B7010008B7010008B7010008B701000800
:10010000B7010008B7010008B7010008B7010008EF
:10011000551F00086D1F0008B7010008B70100084F
:10012000B7010008B7010008B7010008B7010008CF
:10013000B7010008B7010008B7010008B7010008BF
:10014000B7010008B7010008B7010008B7010008AF
:10015000B7010008B7010008B7010008811F0008B7
:10016000B7010008B7010008B7010008B70100088F
:10017000B7010008B7010008B7010008B70100087F
:10018000B7010008B7010008DFF80CD00BF000F849
:1001900000480047A92F0008B89A00200648804769
:1001A00006480047FEE7FEE7FEE7FEE7FEE7FEE75C
:1001B000FEE7FEE7FEE7FEE72333000889010008BB
:1001C0002849084328490860704730B50F23C27892
:1001D00001780125FAB1244A126801F1E02102F404
:1001E000E062C2F5E062C2F30722C2F10404D34028
:1001F0004278A24084781C401443220181F80024F4
:10020000007800F01F018D404009800000F1E020DF
:10021000C0F8005130BD01F01F0085404809800042
:1002200000F1E020C0F8805130BD104A1140014378
:100230000D48001F016070470B4A121D002911680C
:1002400001D0014300E08143116070474FF0E0218D
:100250000428086903D020F004000861704740F0CA
:100260000400FAE70000FA050CED00E080FFFF1F34
:10027000F848016841F001010160F64A00210832A6
:1002800011600268F44B1A400260031DF34A1A60C1
:10029000F04BF34A84331A60F04A103A1B1D1A607F
:1002A000026822F480220260EA480C300160181DC6
:1002B00001607047E7490022891C0A700870704786
:1002C00002460020510901290CD002290CD0E14935
:1002D0007431096802F01F02012393400B4200D0E1
:1002E00001207047DB49F4E7DA497031F1E718B5CE
:1002F00000204FF4A04400903120FFF7E1FF009967
:10030000491C0091A14201D00028F5D03120FFF70F
:10031000D7FF002800D0012018BDCE4A116821F077
:10032000F80141EAC00010607047CE49086070478C
:10033000C849002270310A700A70012802D00428CE
:1003400001D1052008707047C7490860704741EA2D
:1003500082115A0810B5C54B029C03EB02421143AF
:10036000014341EA0460BB49091D086010BDBD4955
:1003700008667047800140EA0170B6498431086020
:100380007047B84988667047800140EA0160B1490A
:1003900040EA0270883108607047B24908677047C8
:1003A000B049C8647047AB4B08331A68084322F061
:1003B000EC62104318607047A64B08331A68084374
:1003C00022F07842104318607047A24A0832116840
:1003D00021F003010143116070479E480830006816
:1003E00000F00C0070479B4A0832116821F0F001C0
:1003F000014311607047974A0832116821F4E051B7
:10040000014311607047934A0832116821F460413A
:1004100041EAC0001060704770B58E4B0833196810
:10042000934C11F00C0104D06610042903D0082964
:1004300003D004601BE0066019E0864A121D1168B3
:10044000C1F38055116801F03F0115B1B6FBF1F120
:1004500001E0B4FBF1F114681268C4F3881461433D
:10046000C2F30142521C5200B1FBF2F10160196863
:100470000F2202EA11117F4A545C0168E140416099
:100480001C68072505EA9424145D21FA04F48460AD
:100490001B6805EA5333D25CD140C16070BDC0F324
:1004A0000121032908D16B4B08331968724A21F4E2
:1004B000F81102400A431A60664970310A68C0F3B5
:1004C0000B0002430A60704767494439086070476F
:1004D00065494039086070476249C1F85C0170475E
:1004E0005C4A8C32116821F440110143116070475D
:1004F000584A8C32116821F4400101431160704761
:10050000544A8C321168401E21F01F0101431160D2
:100510007047504A8C3211686FF0FF0321F4F85194
:1005200003EB00200843106070474A4A8C32116880
:1005300021F440310143116070475049C1F8E00196
:100540007047444A30320029116801D0014300E06D
:100550008143116070473F4A34320029116801D04D
:10056000014300E08143116070473A4A3832002964
:10057000116801D0014300E0814311607047354AA2
:1005800040320029116801D0014300E0814311602D
:100590007047304A44320029116801D0014300E01D
:1005A0008143116070472B4A10320029116801D035
:1005B000014300E0814311607047264A143200294C
:1005C000116801D0014300E0814311607047214A66
:1005D00018320029116801D0014300E08143116005
:1005E00070471C4A20320029116801D0014300E005
:1005F000814311607047174A24320029116801D0E5
:10060000014300E0814311607047124A50320029D3
:10061000116801D0014300E08143116070470D4A29
:1006200054320029116801D0014300E08143116078
:100630007047084A58320029116801D0014300E090
:10064000814311607047034A60320029116817D056
:10065000014316E000380240FFFFF6EA10300024A4
:100660000030002000004742800E47420000FFFF9C
:100670000024F40000000020FFFCFF0F00104742A0
:10068000814311607047194A0029116801D0014364
:1006900000E081431160704714490C31012808685B
:1006A00003D020F008000860704740F00800FAE727
:1006B0000E4A573A0029117801D0014300E08143E6
:1006C0001170704709481030016841F08071016075
:1006D00070470146054A0020583A12680A4200D085
:1006E000012070470149563908707047643802404C
:1006F00010B501218C032046FFF77DFF2046BDE8A1
:1007000010400021FFF777BF144908607047144973
:100710000862704710B58A0721F003041149120FCF
:1007200021440F23D1F8084893409C43C1F808485E
:10073000D1F8083890400343C1F8083810BD084983
:10074000C1F8DC0070470849086070470349002081
:1007500020310968C90500D50120704700380140E3
:1007600000002742003001400004274235490020A4
:100770000860091D0860091D0860091D08603149ED
:10078000314814310860704730B52E4A83790168CA
:1007900053B313688B431360111D0B680468A343A4
:1007A0000B60017911440B68046823430B60254BEF
:1007B000083319680468A14319601C1D2168056885
:1007C000A94321604179102905D011440A680068C5
:1007D00002430A6030BD196802681143196021683C
:1007E00000680143216030BD0079104402688A43EB
:1007F000026030BD0021016001710C2242718171E3
:100800007047104910310A6802430A607047014678
:100810000C4A0020143212680A4200D001207047AE
:1008200008491431086070470146064A0020143216
:1008300012680A4200D00120704702491431086052
:1008400070470000003C0140FFFF7F00CD4910B51C
:10085000884206D101211020FFF7CDFE0021102093
:1008600020E0C949884202D101214C0429E0C7494E
:10087000884202D101218C0423E0C549884202D17B
:100880000121CC041DE0C349884202D101210C059D
:1008900017E0C149884209D101212020FFF7ABFEB2
:1008A00000212020BDE81040FFF7A5BEBB498842CB
:1008B00002D101218C0704E0B94988420AD1012103
:1008C00044052046FFF78DFE2046BDE8104000217C
:1008D000FFF787BE10BD7FB50446008A0D46C98864
:1008E00020F4405001432182A08941F20C618843E9
:1008F000A9882A8911436A8902431143A181A08AE8
:1009000020F44071A8890843A0826846FFF784FD5F
:100910009C48844202D0A048844201D1039800E060
:100920000298A189090400EBC00101EB00102968BD
:1009300001D5490000E08900B0FBF1F06422B0FB72
:10094000F2F109010B096FF018056B4300EB83000E
:10095000A3891D044FF0320306D503EBC000B0FBA2
:10096000F2F000F0070005E003EB0010B0FBF2F03E
:1009700000F00F00084320817FBD4FF41651016045
:1009800000218180C18001810C22428181817047D8
:1009900010B5028A4C8822F470630A8822438C883E
:1009A000C9880C4322431A43028210BD00210180F2
:1009B00041808180C18070470029818902D041F443
:1009C000005101E021F4005181817047028B02F453
:1009D0007F420283028B0A43028370470029818988
:1009E00002D041F4004101E0C1F30E018181704762
:1009F0000029818A02D041F4006101E021F4006104
:100A000081827047C1F30801818070478088C0F3FC
:100A100008007047028A22F00F020282028A0A430B
:100A2000028270470029818902D041F0020101E071
:100A300021F0020181817047828922F40062828163
:100A400082890A4382817047028A22F02002028250
:100A5000028A0A43028270470029018A02D041F4C7
:100A6000804101E021F4804101827047818941F099
:100A70000101818170470029818A02D041F008017B
:100A800001E021F0080181827047028BD2B202831B
:100A9000028B42EA0121018370470029818A02D03A
:100AA00041F0200101E021F02001818270470029FE
:100AB000818A02D041F0100101E021F01001818211
:100AC0007047828A22F004028282828A0A438282EA
:100AD00070470029818A02D041F0020101E021F033
:100AE000020181827047002A828A01D00A4300E015
:100AF0008A438282704710B5C1F3421301F01F048C
:100B00000121A140012B07D0022B07D01430002A6D
:100B1000026805D00A4304E00C30F8E71030F6E72D
:100B20008A43026010BD0246002012880A4200D0AB
:100B300001207047C9430180704770B501F01F055F
:100B400001260024C1F3421306FA05F2012B0FD04F
:100B5000022B0FD0838A4FEA11210088134206FA34
:100B600001F600EA060001D000B10124204670BD64
:100B70008389F0E7038AEEE70A0A01219140C9431D
:100B800001807047001001400044004000480040D0
:100B9000004C00400050004000140140007800402C
:100BA000007C004018B50020FA4B0090CA20186065
:100BB00053201860F7491839086820F0A000086031
:100BC0004FF400340868009A00F02000521C009294
:100BD000A24201D00028F5D00868800601D5012086
:100BE00000E00020FF21196018BD08B5E949002088
:100BF000183900900868400612D44FF0FF300860A2
:100C00008B130868009A00F04000521C00929A4230
:100C100001D00028F5D00868400601D4002008BDA6
:100C2000012008BD78B50024DA4ECA20009425467C
:100C3000306053203060FFF7D8FFE0B3D548243848
:100C40000460D44942F20110203908600B1D186875
:100C500000F0070018608D131A1D1068009900F04D
:100C60000400491C0091A94201D00028F5D0106869
:100C7000400729D518681C60C6494FF6FF70103927
:100C80000860091FC4480860C2480C380460001D91
:100C90000460001D0460BF4808300460BD4818307F
:100CA0000460BC4820300460001D04601460B94832
:100CB0001C30046000E003E0FFF774FF20B1012561
:100CC000FF203060284678BD0025F9E7B148183884
:100CD000016821F080010160704770B5AD4E044697
:100CE0000025CA20306053203060FFF77EFFA8B196
:100CF000A8481C38016821F04001016001682268A1
:100D000011430160A348A168143801600168A288FA
:100D100041EA02410160FFF7D9FF0125FF20306061
:100D2000284670BD002101607F214160FF21816064
:100D30007047984908B1FF2002E0CA20086053209C
:100D40000860704770B5934E05460024CA20306095
:100D500053203060FFF749FF60B18E481C380168AE
:100D600015B141F0100101E021F010010160FFF721
:100D7000ADFF0124FF203060204670BD854ACA21A6
:100D800011605321116083491C390028086802D082
:100D900040F0200001E000F0DF000860FF2010605C
:100DA00070472DE9F0410C4600267C4F0100207869
:100DB000396832464FEA416104D000292FDA00F049
:100DC0000CFC2DE0002900DBE27000F0FAFB0504CA
:100DD000607800F0F6FB45EA0025A07800F0F1FB12
:100DE0000543E07845EA00456A4CCA20206053205C
:100DF0002060FFF7FAFE68B1694805406748083887
:100E00000560FFF763FF3868800602D4FFF7CAFE6B
:100E100000B10126FF2020603046BDE8F081E2707D
:100E2000A078217840EA01456078E178000240EA44
:100E300001400543D8E70021C17001704170817005
:100E40007047020010B557480C460168544801EA43
:100E50000001C1F305402070C1F30623637001F067
:100E60007F03A3704FF0400303EA1141E1700AD100
:100E700000F0B3FB2070607800F0AFFB6070A078EA
:100E800000F0ABFBA07010BD4248001D0068434954
:100E9000091F0968704770B50C460026010060788C
:100EA0000FD000F09AFBA07800F097FBA078E178D3
:100EB00040EA014560782178000240EA413005436C
:100EC00015E0C10603D520F010000A306070E0780C
:100ED00000F077FB0504607800F073FB45EA00251D
:100EE000A07800F06EFB0543207845EA4035294C98
:100EF000CA20206053202060FFF777FE70B12A4897
:100F000005402648001F0560FFF7E0FE2348006803
:100F1000800602D4FFF746FE00B10126FF202060C4
:100F2000304670BD01210170817041700021C17097
:100F30007047020010B51D480C4601681A4801EAC6
:100F400000014FEA1140E070C1F30423637001F027
:100F50003F03A370C1F3423121700AD100F03DFB81
:100F6000E070607800F039FB6070A07800F035FB2D
:100F7000A07010BD70B514460D46084A0021002827
:100F800010684FEA406013D000282ADA207800F079
:100F900024FB27E024280040FF007F0008280040B1
:100FA0007F7F7F00002800403FFFFF0004280040B3
:100FB000002800DBE170207800F003FB0604607875
:100FC00000F0FFFA46EA0026A07800F0FAFA06439D
:100FD000E07846EA0046207B00F0F3FA46EA00603B
:100FE00010E0E170207B00F0F8FAA0782178E27838
:100FF00040EA01406178090241EA02410843217B4D
:1010000040EA0160A168084361680843F849CA22C0
:101010000A6053220A60B5F5807F04D00A1F106071
:10102000FF20086070BDF24A083AF8E70021C1705D
:1010300001704170817001228160027341607047CC
:1010400010B514460246B1F5807F2AD0E848001F4B
:101050000168C1F305402070C1F30623637001F0FD
:101060007F03A370402303EA1143E370C1F30563D8
:10107000237301F0804301F08031C4E90113002A99
:101080000ED100F0AAFA2070607800F0A6FA607025
:10109000A07800F0A2FAA070207B00F09EFA2073E6
:1010A00010BDD3480838D3E738B50022D04C0092A1
:1010B000CA22226053222260CD4A1C3A00291168BC
:1010C00002D00143116012E081431160C84A183A0E
:1010D00095131168009B01EA10215B1C0093AB4241
:1010E00001D00029F5D0116811EA102000D00120AC
:1010F000FF21216038BD10B5BD4BCA241C605324AC
:101100001C601143B0F5807F05D0B94824300160E0
:10111000FF20186010BDB6482030F8E7B0F5807F9A
:1011200005D0B34824300068C0F30E007047B048C3
:101130002030F8E7AE4ACA21116053211160AC4952
:101140001C390B6823F007030B600B6803430B602B
:10115000FF2010607047A649CA220A6053220A6025
:10116000A34A103A1060FF2008607047A04810386A
:10117000006880B2704718B500219D4B0091CA21CC
:101180001960532119609A491C390028086803D056
:1011900040F48060086014E020F4806008609449A6
:1011A00018398C130868009A00F00400521C009251
:1011B000A24201D00028F5D00868400701D40020E1
:1011C00000E00120FF21196018BD894B10B5CA222B
:1011D0001A6053221A60864A1C3A146824F4802448
:1011E00014601468084304431460FF20186010BDA5
:1011F0007F481C38006800F4802070477C4B10B595
:10120000CA221A6053221A60794A1C3A146824F4DC
:10121000E00414601468084304431460FF2018605D
:1012200010BDF0B5724D06460024CA200F46286056
:1012300053202860FFF7D9FC30B16D483E430C388D
:101240000660FFF743FD0124FF2028602046F0BD23
:1012500070B5674E05460024CA20306053203060C8
:10126000FFF7C3FC60B162481C38016815B141F05A
:10127000800101E021F080010160FFF727FD0124DA
:10128000FF203060204670BD594ACA2111605321A9
:10129000116057491C390028086802D040F400004A
:1012A00001E020F400000860FF2010607047504A01
:1012B000CA211160532111604D491C390B6823F478
:1012C00000230B600B6803430B60FF201060704726
:1012D000F0B5474D0023CA242C6053242C60444CA5
:1012E000183C2668F60308D54FF400362768FF033C
:1012F00003D5B34201D05B1CF8E72368DB0306D4B7
:1013000008433B49104318310860012000E00020E9
:10131000FF212960F0BD364B10B51C3B1A6840F622
:101320000804A24342EA000209B142F400623048D4
:10133000CA210160532101601A60FF21016010BDC4
:1013400070B50D462A4914460C310968294A1140E6
:10135000274A103212684FF63F731A40C1F3054313
:101360002B70C1F306236B7001F07F03AB70402339
:1013700003EA1141E9700021E170C2F304216170B8
:1013800002F03F01A170C2F342312170002817D151
:10139000287800F022F92870687800F01EF968704B
:1013A000A87800F01AF9A870607800F016F960705B
:1013B000A07800F012F9A070207800F00EF92070EB
:1013C00070BD0B48143000687047094A1C32002970
:1013D000116803D041EA40001060704721EA4000E4
:1013E000FAE7034A1C320029116805D0014304E0E2
:1013F000242800407F7F7F008143116070477B4934
:101400000A6822F4C0520A600A6802430A60704700
:1014100076490A6822F4E0620A600A6802430A60B8
:10142000704772490A6822F4C0420A600A6802439F
:101430000A6070476D490028086802D040F08000BB
:1014400001E020F0800008607047684900280868C3
:1014500002D020F4004001E040F4004008607047F2
:10146000624A08B5103202EB80000090016008BDAE
:101470005E4908B5103101EB80000090006808BD9E
:101480005A490A6822F480320A600A6802430A60F4
:10149000704756490A6822F400320A600A6802431B
:1014A0000A60704751490A6822F480220A600A687B
:1014B00002430A60704770B54C4C0022CA231C3CA2
:1014C000236053232360494B343B1D682D0707D508
:1014D0009E141D682D0703D5B24201D0521CF8E7B7
:1014E0001A6812070DD4414A383A1268D20608D455
:1014F00001433E4814380160FFF754FB10B101204E
:1015000000E00020FF21216070BD30B5374DCA22B8
:101510001C3D2A6053222A60344C20F00402383CDF
:101520000029324B216800F0040004D011432160EF
:101530001968014303E091432160196881431960F0
:10154000FF20286030BD0246284900203439096850
:10155000274B1940114200D00120704780B240F063
:101560008000C14321483438026802F080021143F0
:10157000016070471D4A10B5126800211B4B02F034
:101580000402383B1B6802EAD0340340234302EADA
:1015900010421343174A126802EA101003D00004E5
:1015A000000C00D00121084610BDC0F30F1040F020
:1015B0008000C1430F48026802F0800211430160BD
:1015C0007047002103E0491C0A38C9B2C0B20A289A
:1015D000F9D2090740EA11607047010901EB810166
:1015E00000F00F0000EB4100C0B2704740280040FF
:1015F0007F7F01000C28004010B501210C07204618
:10160000FEF7EFFF2046BDE810400021FEF7E9BFDE
:101610003B49086270473B4A116821F0E0010143F1
:10162000116070473649086170473549C1F8A0001C
:1016300070473349C1F8A4007047324A116821F459
:1016400040410143116070472D49086470472C499F
:10165000486470472B490028086802D040F44020B5
:1016600001E020F440200860704725494862704737
:10167000244B10B51A6840F60344A24302431A6093
:101680002148026842F004020260012905D020BF0F
:10169000016821F00401016010BD30BFF8E7194B6B
:1016A00010B51A6840F60344A24302431A60164874
:1016B000026842F004020260012905D020BF0168DF
:1016C00021F00401016010BD30BFF8E70D4801684A
:1016D00041F0020101600C48016841F00401016021
:1016E00030BF7047074A0146002052680A4200D0C6
:1016F0000120704703490A6842EA80000860704789
:1017000000000E420070004010ED00E070B55A4835
:101710004168491C4160816811B18168491E81603E
:1017200001F083FC0024554E18E006EB8405686840
:1017300090B1017B81B1826872B1521E826069688A
:101740000AD14869096988476868016881606868E2
:10175000416809B900210173641CE4B23078A042E9
:10176000E3D870BD464801684FF47A70B1FBF0F0E1
:10177000401EB0F1807F12D24FF0E0225061414B09
:10178000F02083F8140D00209061072010613E487E
:10179000B1FBF0F13848C160012101707047FEE7EC
:1017A00035480078002805D04FF0E020016941F06D
:1017B0000201016170474FF0E020016921F0020150
:1017C000016170472DE9F0472C4C0546DDF820906B
:1017D00020781E4617468846052802D30020BDE81B
:1017E000F08718200AF028F80028F8D00560C0E932
:1017F00001850773C0E90469217804EB8101486021
:101800002178491C2170EAE71C4B30B400211A787A
:1018100006E003EB81046468844203D0491CC9B22A
:101820008A42F6D88A4218D003EB81004068EFF371
:10183000108472B605E003EB8102491C9568C9B2B9
:1018400055601A78521E8A42F5DC1978491E1970C3
:1018500004B962B630BC09F0C7BF30BC7047002184
:1018600001737047012101737047016881607047FF
:10187000416070470160704710000020D0020020D6
:10188000BC0000200FE000E0C0C62D001CB5002009
:101890000321CDE9000103464FF4704401222146A3
:1018A000184801F083FA17481A3004801CBD1CB593
:1018B00000210220CDE900010B460A460121124811
:1018C00001F074FA1CBD10480069C1070F4805D02B
:1018D000017829B901210170084670470021017083
:1018E0000020704708480069C107084803D001215B
:1018F00001700020704701780029FAD000210170A2
:1019000001207047000C024000000240200000202F
:10191000FE4A0146904200D10020FD4A914200D18A
:101920000120FC4A914200D10220FB4A914200D1A1
:101930000420FA4A914200D10520F94A914200D18F
:101940000620704770471CB50822032140B10128CA
:101950000DD0032803D10821F148FFF7F3FF1CBD88
:10196000CDE9001201230022C021EE4806E0CDE9B6
:101970000012012300224FF48441EB4801F027FAC2
:101980001CBD7CB530B1032803D10821E348FFF723
:10199000D9FF7CBD08250324012300221903E14857
:1019A000CDE9004501F013FA012300220421DF48AC
:1019B000CDE9004501F00BFA7CBD1CB508220321DE
:1019C00040B101280DD0032803D10821D248FFF7E8
:1019D000B9FF1CBDCDE90012012300220321D44828
:1019E00006E0CDE90012012300224FF44061CD480A
:1019F00001F0EDF91CBD1CB507220323990250B17B
:101A000001280ED0022812D0032803D10721C14893
:101A1000FFF798FF1CBDCDE9003201230022C54825
:101A20000CE0CDE9003201230022BE4806E0CDE9FA
:101A30000032012300224FF44071BC4801F0C7F985
:101A40001CBD1CB50722032140B101280DD003287D
:101A500003D10721AE48FFF775FF1CBDCDE9001289
:101A6000012300220C21B24805E0CDE90012012338
:101A700000226021AD4801F0AAF91CBD1CB5072267
:101A8000032140B101280ED0032803D107219F482C
:101A9000FFF758FF1CBDCDE90012012300224FF4CF
:101AA000C061A34805E0CDE9001201230022C02156
:101AB000A04801F08CF91CBD944A0146904200D127
:101AC0009D48934A914201D19B481030914A9142DE
:101AD00001D199482030904A914201D19648303046
:101AE0008E4A914201D1944840308D4A914201D1B1
:101AF0009148503070472DE9FF4F87B09A46DDE995
:101B000014B913460446DDF85C80FFF7D5FF05469F
:101B10007E488A4F0193844209D1386840F0100012
:101B200038600898FFF7AAFF25208DF80000834E43
:101B30007748361F844209D1306840F40030306065
:101B40000898FFF77EFF26208DF800007148844238
:101B500009D1306840F4802030600898FFF74BFFCF
:101B600027208DF800006C48844209D1306840F489
:101B7000002030600898FFF720FF34208DF8000027
:101B80006648844209D1306840F48010306008987B
:101B9000FFF7F7FE35208DF800006148844209D137
:101BA000386840F0200038600898FFF7CCFE4720E6
:101BB0008DF800002046FEF749FE01268DF80360EF
:101BC00006208DF801002046FFF7A2FE8DF80200E6
:101BD0006846FEF7FAFA1698ADF80A00ADF80EB0AE
:101BE000ADF810A0ADF80C90ADF808800020287377
:101BF00040F6FF700590411E059101D30846FAE7B3
:101C000001A92046FEF767FEA08940F02000A081D0
:101C10002E73A08940F40050A0810BB0BDE8F08F76
:101C20002DE9FF410446394800250C261746884611
:101C3000844206D1CDE90065029500230395FFF7A4
:101C40005AFF3348844208D1CDE90065029500234C
:101C50003A4641460395FFF74EFF2E48844208D18D
:101C6000CDE90065029500233A4641460395FFF70A
:101C700042FF2948844208D1CDE90065029500233E
:101C80003A4641460395FFF736FF2448844208D17F
:101C9000CDE90065029500233A4641460395FFF7DA
:101CA0002AFF1F48844208D1CDE900650295002330
:101CB0003A4641460395FFF71EFFBDE8FF812DE937
:101CC000FF470446114800250C261F4690468946CA
:101CD000844205D1CDE9006502950395FFF70BFF1E
:101CE0000B48844208D1CDE9006502953B46424647
:101CF00049460395FFF7FFFE0648844223D1CDE90C
:101D0000006502953B464246494619E000100140F5
:101D10000044004000480040004C0040005000409B
:101D2000001401400008024000180240000C02406C
:101D30000000024000040240240000204438024019
:101D40000395FFF7D8FE9448844208D1CDE9006599
:101D500002953B46424649460395FFF7CCFE8F4825
:101D6000844208D1CDE9006502953B46424649468A
:101D70000395FFF7C0FE8A48844208D1CDE900658B
:101D800002953B46424649460395FFF7B4FEBDE83F
:101D9000FF8710B50023FFF78FFEC18819B90289AC
:101DA0004489A2420DD0428983889A4201D10022FF
:101DB0004281036892B29B56521C428109B1491E6E
:101DC000C180D8B210BD10B50C46FFF775FEC388B0
:101DD00042890DE08188914200D100220168895C2E
:101DE000A14201D1012010BD521C5B1E92B29BB2D8
:101DF000002BEFD1002010BDF0B516460F468446EB
:101E00000024FFF759FE0546C08840B1697B604653
:101E1000FFF7D9FF78B9E888A98888420BD000205D
:101E2000F0BD6046FFF7B5FF3855697B884205D0A5
:101E3000641CA4B200E0761EB442F2DB0021641CF4
:101E4000A0B23954F0BD00B5FFF736FEC18829B9FC
:101E500001894089814201D1012000BD002000BDDF
:101E600000B5FFF729FEC1888088814201D1012099
:101E700000BD002000BD00B5FFF71EFE0021C1809F
:101E80000181418100BD00B50B46FFF715FE43738C
:101E900000BD10B50C460346FFF70EFE007B002880
:101EA0000BD007E019880906FCD59880641C1888B7
:101EB0000006FCD520780028F4D110BD70B5154679
:101EC0000E460446FFF7F8FD007B00280DD00023E6
:101ED00009E020880006FCD5F05CA0802088000680
:101EE000FCD55B1C9BB2AB42F3D370BDC388828828
:101EF00093420DD20389934201D1002202810389CA
:101F00000268D1540189491C0181C188491CC180E2
:101F1000704724480188890603D58088C1B22248C9
:101F2000E4E7704721480088800606D51F48001D59
:101F30000088C1B21C481030D8E770471C480088A0
:101F4000800606D51A48001D0088C1B21648203008
:101F5000CCE7704710480088800606D50E48001D63
:101F60000088C1B210483030C0E770470B48018884
:101F7000890604D58088C1B20B484030B6E7704767
:101F800007480088800606D50548001D0088C1B2B4
:101F900005485030AAE77047004C00400050004010
:101FA00000140140001001402400002000440040C3
:101FB000004800402DE9F0471C4615460E460746EE
:101FC0004FF00009FFF7CEFBCA494FF0010847B1B7
:101FD00000200B183A5C401CC0B21A710628F8D3D6
:101FE0000BE0062008710520487104208871032049
:101FF000C8710220087281F80980C0234FF0A80C34
:1020000000223EB10020375C0F54401CC0B20428AF
:10201000F9D305E00B7081F801C08A707820C87090
:1020200045B100200E182B5C401CC0B2B3730428CD
:10203000F8D305E08B7381F80FC00A7481F8118022
:1020400044B100200D18235C401CC0B2AB720428C0
:10205000F8D304E0FF208872C87208734A73CA7408
:1020600081F8148081F8482081F84C2081F84D20B7
:102070000020C1E90A00C1E90800C1E910000A63B3
:10208000C1E90E00A1F84A2081F84E2003F0BAFA07
:1020900008B94FF0010902F075FB974880F80080FD
:1020A0004846BDE8F087944910B5097829B1914CAC
:1020B00094F8481019B1002010BD012010BDB4F8EB
:1020C0004A1011B938B1A4F84A0002F08AF8012088
:1020D00084F84800EFE75020F5E7874810B500780E
:1020E00050B1844C94F84800002804D002F089F8DC
:1020F000002084F8480010BD012010BD10B502F08A
:1021000077FB08B102F076FB7B48406802F0C3FB26
:10211000002010BD78494A6810444860002070478C
:102120007448C17C19B1007D08B1002070470120BE
:1021300070477047FEB5704CDDE909762478DDF80C
:1021400020C024B16B4C94F84E5085B901E00520B5
:10215000FEBD257D6DB1E47C6CB1CDE900C7029672
:1021600002F083FA10F10B0F07D00028F0D0012005
:10217000FEBD0320FEBD0220FEBDFFF7DAFF0420F6
:10218000FEBD0020704710B55B4C0A46A17809B12E
:10219000012010BD0146594802F038F80120A07016
:1021A000002010BD10B5544CE2780AB1012010BDDA
:1021B00002F031F80120E070002010BD7047704738
:1021C00008B54D4B00225A7059B1096849B10A0E41
:1021D0000092C1F30743C1F30722C9B2FFF7EFFF33
:1021E00008BDFFF7EBFF08BD7CB50446FFF798FF7D
:1021F00010B9414D687808B101207CBD0023AFF2D1
:102200003F0201A9204604F0CBFB10F1050F10D0CE
:1022100018B12046FFF7D2FFEEE70198010E0091BA
:10222000C0F30743C0F30722C1B22046FFF7C7FF40
:1022300001E00120687000207CBD70477047704746
:10224000704770B50D4604462DA1284608F012FFD0
:102250002A4623462FA1104609F068F831A12846E6
:1022600008F0BEFE34A1284608F0BAFE284608F061
:10227000DFFE80B270BD704770477047704770478F
:10228000012070477047002070474FF0FF307047C3
:10229000704700207047002070477047704700204B
:1022A000704710B5FFF7FAFF10BDF8B5114C069D49
:1022B0000DB10026A67420706170A270E370012633
:1022C000E6742675009500F0B6FEF8BD094810B515
:1022D000012101750021C17402F0C0F800F0E3FE95
:1022E00010BD044910B50020087502F0B8F800F0E0
:1022F000D7FE10BDA8030020840000208321000821
:10230000474554202F20485454502F312E310D0A68
:10231000000000002573486F73743A2025730D0A7E
:1023200000000000436F6E6E656374696F6E3A2043
:10233000636C6F73650D0A000D0A00002DE9F34F01
:1023400081B090F80690DDF808C090F800A00679FA
:102350004579447A037AC279BCF1010F23D0DC4677
:1023600062F31F616AF3070C63F3070765F30F213C
:10237000E34664F30F2766F30701CC46C7F3072A49
:102380006CF31741BAF1630F7ED8FFB25FEA070E14
:102390007AD0BEF10C0F77D80F0E00977ED05FEA8F
:1023A0008A7747D04FE04FEA121C02F00F080CEB7F
:1023B0008C0C08EB4C0C6CF31F614FEA131C03F000
:1023C0000F080CEB8C0C08EB4C0C6CF307074FEA76
:1023D000141C04F00F080CEB8C0C08EB4C0C6CF389
:1023E0000F274FEA151C05F00F080CEB8C0C08EBBF
:1023F0004C0C6CF30F214FEA161C06F00F080CEB87
:102400008C0C08EB4C0C6CF307014FEA1A1C0AF019
:102410000F080CEB8C0C08EB4C08DC4668F3070C3F
:10242000E3464FEA191C09F00F080CEB8C0C08EB83
:102430004C0CA3E70AF5FA674FF0640CB7FBFCF805
:102440000CFB18776FBB0AF5FA674FF4C87CB7FB33
:10245000FCF80CFB187727B3002707EB47074FF072
:10246000FF3CDFF83C840CEB870C0EEB080717F8F9
:102470000CC0009FBC4511D3C1F30727172F0DD8FF
:10248000CFB23B2F0AD800E008E00BF0FF073B2F4C
:1024900004D8C1F3074109B1072904D90120BDE8D7
:1024A000FE8F0127D9E7FE4914390D704E70007870
:1024B0008870081D002182704370C47080F80090FD
:1024C000F84801601F21416040F2FF318160FEF752
:1024D00004FC0298F2490128A1F1140112D0002055
:1024E000FEF75FFCEE4900201039FEF7D4FCEC4803
:1024F0001838006820B144F221311320FEF7B0FFF4
:102500000020CCE70120FEF74CFCE5491039012002
:10251000EBE710B510B101280BD016E00120FDF754
:1025200013FF6120FDF7CCFE0028FAD04FF40070B5
:1025300009E00120FDF7FCFE4120FDF7C1FE002867
:10254000FAD04FF48070FDF7AAFF0120FDF7BCFF21
:102550000020FEF7EEFBFEF725FB0120FEF7E9FB6E
:10256000BDE8104041F234211320FEF779BFF0B5E9
:10257000427A002340F2B27102F5FA628A4201D235
:102580000020F0BD6425AE004FF4B77740F26D1C1B
:102590000FE08C0704D1B1FBF5F405FB14147CB9F2
:1025A000B1FBF6F406FB141454B16446491C2344F1
:1025B00089B29142EDD30121DFF8E4C2077A18E035
:1025C0003C46F3E7940704D1B2FBF5F405FB142471
:1025D0002CBBB2FBF6F406FB142404B3002404EB7A
:1025E00044040CEB84040C44491C14F8014C89B2DB
:1025F00023448F42E6D8C1795B1ECA18AA494A43D0
:102600004179C1EB4113C3EB012102EB01120179C6
:102610000078C1EB011102EB81010844F0BD0124F7
:10262000DDE770B50D009E490446A1F1140122D0EA
:102630000120FEF706FC9A48143801786171417850
:102640002171807820709948006895496080103920
:102650009DB10120FEF76DFC91481038C178617280
:10266000417821728178E1710078A0712046FFF7EE
:102670007EFFE06070BD0020DBE70020EAE72DE987
:10268000FF47074601210807FDF779FF0120FEF704
:10269000BFFF1320FEF7ECFE814D44F22131DFF83D
:1026A0001082183D4FF480494FF48004884216D1BF
:1026B000296019E00020FEF73CFBFEF773FA0120C9
:1026C000FEF737FB4846FEF770FFC8F800400021D0
:1026D0006846FFF7A6FF286804B0BDE8F08741F21E
:1026E0003426B04206D12E60002FE3D10020FFF740
:1026F00010FFDFE7002438462C60FFF70AFF0120B7
:102700008DF807008DF806008DF808008DF805405B
:102710008DF809408DF804408DF80040002168468E
:10272000FFF70CFE00202E60D6E77FB500210B4698
:102730008DF807106FF02F020AE09DF80750491C32
:1027400005EB850502EB45052C448DF80740C9B221
:10275000445CA4F13005092DEFD9491CC9B28DF8AC
:1027600008300AE09DF80850491C05EB850502EB8E
:1027700045052C448DF80840C9B2445CA4F13005ED
:10278000092DEFD9491CC9B28DF809300AE09DF82E
:102790000950491C05EB850502EB45052C448DF8D5
:1027A0000940C9B2445CA4F13005092DEFD9491C98
:1027B000C9B28DF806300AE09DF80650491C05EBB9
:1027C000850502EB45052C448DF80640C9B2445CF2
:1027D000A4F13005092DEFD9491CC9B28DF8053097
:1027E0000AE09DF80550491C05EB850502EB4505FF
:1027F0002C448DF80540C9B2445CA4F13005092D84
:10280000EFD9491CC9B28DF804300AE09DF8045094
:10281000491C05EB850502EB45052C448DF8044069
:10282000C9B2445CA4F13005092DEFD9491CC9B2E5
:102830008DF800300AE09DF80040491C04EB840448
:1028400002EB440423448DF80030C9B2435CA3F189
:102850003004092CEFD900216846FFF76FFD04B062
:1028600070BD08B10C2801D9002070478A0701F516
:10287000FA6105D16422B1FBF2F302FB1312E2B953
:102880004FF4C872B1FBF2F302FB1311A9B100219E
:10289000034A01EB410102EB810108440AE0000018
:1028A000A4000020F80300208051010028280040E7
:1028B000143C014010F8010C70470121E8E7810742
:1028C00000F5FA6005D16421B0FBF1F201FB1201C1
:1028D00049B94FF4C871B0FBF1F201FB120010B11D
:1028E00040F26D1070474FF4B77070472DE9F04714
:1028F0000446D3484FF48008C0F800800020FEF75B
:102900003AFC4FF4804A00215046FEF7FEFDDFF806
:1029100034930321002689F80010042189F801105E
:1029200089F8026089F803604846FDF74EFC09F11A
:1029300004070820C7F800803E717871BE713846E0
:10294000FDF722FF002C4BD0012689F80360381FC9
:10295000FDF73BFCBE713846FDF716FF0020FEF781
:102960000AFC012C12D0022C12D0032C12D0042C01
:1029700013D0052C14D0062C15D0072C16D0082CFB
:1029800017D0092C18D00A2C19D01AE0AE4D18E037
:10299000AE4D16E04EF6FF7513E049F6FF7510E0F8
:1029A00044F6FF750DE041F6FF750AE040F6FF754D
:1029B00007E040F2FF7504E040F2FF3501E040F22D
:1029C000FF150120FEF7B6FB2846FEF7C4FB0121E8
:1029D0005046FEF79AFDBDE8F0470120FEF7CBBB5D
:1029E0007BE63C22B1FBF2F3F0B502FB1313C160AE
:1029F000B1FBF2F10370B1FBF2F302FB1313B1FB75
:102A0000F2F103711822B1FBF2F302FB1313B1FBD5
:102A1000F2F14371CA1C0723B2FBF3F403FB142247
:102A2000521C4FF4B7748271A61E642340F2B27236
:102A30009D00970704D1B2FBF3F703FB17275FB99B
:102A4000B2FBF5F705FB172737B1B14209D9A1F25F
:102A50006D11521C92B2ECE7A14202D3A1F5B771FD
:102A6000F7E7A2F5FA6444720024764F04720C373B
:102A700007F10C06940704D1B2FBF3F403FB142412
:102A8000ACB9B2FBF5F405FB142484B1047A3C5DC7
:102A90008C4206D8091B047A641CE4B204720C2C24
:102AA000E8D3027A521C0272491CC171F0BD047A4B
:102AB000A45DEDE710B510B1012817D108E00021A1
:102AC0004FF48070FEF7F0FA00214FF4805407E0D5
:102AD00000214FF40070FEF7E7FA00214FF4005494
:102AE0002046FEF712FD2046FEF738FD54484FF40D
:102AF0000031016053480124001D01600021017173
:102B0000082141718471FDF73FFE4E482921017073
:102B1000042141708470C470BDE81040FDF755BBBE
:102B20007FB516460C460546FFF7C4FFE0788DF8E2
:102B30000000A0788DF8010060788DF802004FF059
:102B40000040019020780121F0B10020029020790E
:102B500018B31F2800D91F208DF80C0005B3012DD4
:102B600011D16C026A4621463046FEF703FA012174
:102B70002046FEF799FA01214C032046FEF7C5FCDA
:102B80002046FEF7EBFC7FBD4FF08040029020799D
:102B900018B10728E0D90720DEE78DF80C10DDE733
:102BA0004FF480746A4621463046FEF7E3F901216E
:102BB0002046FEF779FA01210C03DEE7122804D83B
:102BC000234A02EB0010C0F850187047122801D9B0
:102BD000002070471E4901EB0010D0F850087047E4
:102BE00070477047704710B54FF480442046FEF799
:102BF000C1FC20B12046FEF7D8FCFFF7F1FF1049D9
:102C00004FF48000086010BD10B54FF4805420468A
:102C1000FEF7B0FC20B12046FEF7C7FCFFF7E1FF4E
:102C20004FF400542046FEF7A5FC20B12046FEF7E5
:102C3000BCFCFFF7D7FF02494FF40030086010BD1D
:102C4000143C014098000020FFBF0300FFDF01009B
:102C50000020004070B52B4B002211461C68A400D8
:102C600004D51C68012244F080741C60264B45F298
:102C700055541C600B2801D3072400E003245C603A
:102C800000B3012820D0022820D0032820D0042817
:102C900020D0052820D0062820D0072820D040F2B8
:102CA000FF3408281FD040F2FF7509281DD040F6D8
:102CB000FF760A281BD00B2815D00C2815D00D281C
:102CC00015D015E0052113E00A2111E00F210FE0D6
:102CD0001F210DE03D210BE07B2109E0FF2107E0F2
:102CE00040F2FF1104E0214602E0294600E03146AF
:102CF00099604AF6AA2018604CF6CC40186010463D
:102D000070BD00007438024000300040A349084400
:102D1000C0F38F2070472DE9F04F9A46DDE909B8DE
:102D200089460346FFF7F2FFC5B200204FF0030EBD
:102D30000121814011EA090F28D0994E36F815403B
:102D40000C4326F81540DF6844000EFA04F6B7433A
:102D50000BFA04FC47EA0C07DF601F6802FA04FC68
:102D6000B74347EA0C071F60012A01D0022A0DD1A0
:102D70005F6889B28F430AFA00F189B20F435F603E
:102D8000996808FA04F4B14321439960401CC0B229
:102D90001028CDD3BDE8F08F00B5FFF7B7FF0121B4
:102DA0008140804802681143016000BDFCB51646B1
:102DB000DDE907C50C00074608D0FFF7EDFFCDE9B8
:102DC00000C5324621463846FFF7A5FFFCBD2DE978
:102DD000FC4F9946DDE90BB792460D00064622D01E
:102DE000FFF7DAFF002201214FF00F0C01FA02F089
:102DF00028420DD0D00806EB8003186A5407E40E71
:102E00000CFA04F820EA080007FA04F420431862D8
:102E1000521C102AEAD3CDE9009B534602222946D0
:102E20003046FFF778FFBDE8FC8FF0B50E4605464B
:102E3000FFF76CFF00225A49C4B24FF0010C032780
:102E40000CFA02F333420CD028684FEA420E07FA1C
:102E50000EFE40EA0E00286031F81400984321F875
:102E60001400521CD2B2102AEAD3F0BDF0B50022F1
:102E70000125032605FA02F30B4205D0046857002A
:102E800006FA07F39C430460521CD2B2102AF1D315
:102E9000F0BDF0B500220127032607FA02F33C46F5
:102EA0000B4208D00568530006FA03FC25EA0C051E
:102EB0009C4025430560521CD2B2102AEDD3F0BDD0
:102EC000F0B500220125032605FA02F30B4205D0D6
:102ED0000468570006FA07F31C430460521CD2B280
:102EE000102AF1D3F0BDF0B50022012603240227F9
:102EF00006FA02F30B4209D00568530004FA03FCFA
:102F000025EA0C0507FA03F31D430560521CD2B2F3
:102F1000102AEDD3F0BDF0B500230127032507FAF1
:102F200003F40C4209D0C6685C0005FA04FC26EAEA
:102F30000C0602FA04F42643C6605B1CDBB2102BBD
:102F4000EDD3F0BD41F48032C261C161C261C1699B
:102F5000C0697047002102E0491C89B2400801287D
:102F6000FAD80846704700B5FFF7D0FE012181402E
:102F70000C4802688A43026000BD00B5FFF7C6FE38
:102F8000074931F8100000BD00B5FFF7BFFE044946
:102F900031F81000C04380B200BD00000000FEBF49
:102FA00004040020303802400EB549A000680290A9
:102FB00000F0B7F94FF4E13200214648FEF730FE49
:102FC0000A20FFF747FE10B143A008F09FF9FEF773
:102FD000C9FBFEF75BFCFEF76AFC48A008F096F917
:102FE0004B4B00206A46C0F10B010C2902D2191A82
:102FF000097800E000211154401CC0B20628F2D329
:1030000000231A4602A96846FEF7D4FF414948B199
:103010004FF480400880404D4AF6AA242C60FFF708
:103020006DF8FBE74FF48050F4E70120FFF772B82A
:103030003AA008F06BB93EB500931346069C0A46C9
:1030400001460CB140A000E04AA008F05FF9524CE4
:10305000E079627A217A8DE80700A3796279217993
:103060004EA008F053F9607C0090237CE27BA17BAA
:1030700053A008F04BF9607B0090237BE27AA17AA1
:1030800055A008F043F994F84C1059A008F03EF907
:1030900094F84D1003B05AA0BDE8304008F036B99E
:1030A0005CA008F033B96AA008F030B908B5094946
:1030B0008DF800008A89920408D50A881206FCD58A
:1030C0009DF800208A800A881206FCD508BD000001
:1030D000C0A80096001401405265736574206F63A8
:1030E00063757265642062656361757365206F66E0
:1030F000205761746368646F670A000050726F67DD
:1031000072616D207374617274696E672E2E0A008D
:103110001B7AFF1F180C0240003000404448435007
:1031200020686173207374617274656420776974B8
:10313000682061737369676E696E6720495020610A
:103140006464726573730A0049503A2025642E2521
:10315000642E25642E25642061737369676E65642F
:103160002062792044484350207365727665720A64
:103170000000000049503A2025642E25642E256465
:103180002E25643B20535441544943204950207517
:103190007365640A00000000A80300204D41433A13
:1031A00020253032582D253032582D253032582DDB
:1031B000253032582D253032582D253032580A000E
:1031C0004E65746D61736B3A2025642E25642E253F
:1031D000642E25640A000000476174657761793ABE
:1031E0002025642E25642E25642E25640A00000007
:1031F0004C696E6B203130304D3A2025640A000056
:1032000046756C6C206475706C65783A2025640A8C
:10321000000000004C696E6B20697320646F776E4C
:103220002C20646F20796F75206861766520636F4C
:103230006E6E656374656420746F20796F7572209B
:103240006D6F64656D2F726F757465723F0A000053
:103250004C696E6B206973207570206261636B0A24
:1032600000000000704701BEFEE7FEE7FEE7FEE754
:10327000704770477047704710B5FEF747FA10BDAA
:103280000CB50022544900920192086840F4803045
:1032900008604FF4A043086800F4003001900098E3
:1032A000401C0090019810B900989842F3D108682A
:1032B000800334D50120019047484030026842F035
:1032C000805202604548026842F44042026042482F
:1032D000083002680260026842F40042026002683C
:1032E00042F4A0520260031F3D4A1A600A6842F08D
:1032F00080720A600A689201FCD53A4940F2057270
:103300000A60016821F003010160016841F00201D7
:1033100001600168C1F381010229FAD10CBD01925B
:103320000CBD314810B5016841F4700101602A48B4
:10333000016841F001010160274A00210832116053
:1033400002682A4B1A400260031D294A1A6002686B
:1033500022F48022026020480C300160FFF790FFC9
:1033600021494FF000608039086010BD70B51A4DDA
:10337000083528681F4B204910F00C0004D05E105F
:10338000042803D0082803D00B601BE00E6019E06E
:10339000114A121D1068C0F38054106800F03F00FD
:1033A00014B1B6FBF0F001E0B3FBF0F01368126863
:1033B000C3F388135843C2F30142521C5200B0FBBE
:1033C000F2F0086028680C4AC0F30310121D105C6C
:1033D0000A68C2400A6070BD0038024000700040B8
:1033E00008544007003C024088ED00E0FFFFF6FE75
:1033F000103000240024F400BC0000202DE9F0412E
:10340000804600204B494C4E0125074600EB8002C8
:1034100001EB021292F84C20C2B1401C0A28F5DBE5
:103420003C46E4B1404607F003FE32281AD241463A
:103430002046FEF728FFA8B165762776A7604146AB
:1034400004F11A00E76007F015FE23E000EB8002AC
:1034500001EB021484F84C5020746661E1E700200F
:10346000BDE8F0816776354D05E04046696807F0B4
:10347000E6FD30B12D68002DF7D1204600F045F86B
:10348000EDE7A8682060E8686060E868C4E90207C2
:10349000287C20763088401C30802046E0E7264A91
:1034A00010B511880446491E1180407E10B1204697
:1034B000FEF7EEFE2046BDE8104000F026B870B5DD
:1034C0000446407E0E4630B12046FEF7DEFEA1687F
:1034D0000144A16070BDD4E90130984202D14FF09F
:1034E000FF3070BD1D1A954200DD154621682A4641
:1034F0000144304607F050FDA0682844A0602846EB
:1035000070BDD0E90110081A70470A4A002101EB8A
:10351000810302EB0313834207D101EB810102EB2C
:103520000111002081F84C007047491C0A29EEDB8C
:10353000704700001C040020D0000020F8C90008DB
:103540002DE9F041044616460F46084607F070FD87
:10355000050013D0264409E03978884205D12A466F
:103560003946204607F08FFD40B1641C207810B129
:103570006119B142F0D90020BDE8F0812046FBE797
:1035800070B504000FD02068002510B1FFF787FF49
:103590002560E06810B103F0DCFAE5602046BDE884
:1035A000704003F0D6BA70BD2DE9F0471488DFF8FB
:1035B000F088994616468A46054600274B4622461D
:1035C0005146284605F094FC4346D3E90E211219D2
:1035D0007941C8E90E21411C0BD1B5F8661019B12B
:1035E000B5F86810082901D3012402E06408012C11
:1035F000E4D83480BDE8F0872DE9FC5F0C00054677
:103600004FF000076ED00026B4F8E202B14603285E
:1036100058D2B5F86600ADF80000ADF804003AE005
:1036200004EB8000D0F8D40207F002FDB4F8E012F9
:103630001FFA80F8BDF80020A8EB0100904200DDE1
:10364000104680B2ADF80400B4F8E222824604EBE2
:1036500082020023D2F8D4222846114401AAFFF79F
:10366000A3FF060024D0ADF80490B4F8E012BDF832
:103670000400014489B2A4F8E012BDF80020101A39
:10368000ADF80000414506D1B4F8E202401CA4F8B0
:10369000E202A4F8E092BDF800000028B4F8E202CB
:1036A0000CD003280CD2BDF804100029B8D10CE0CE
:1036B000BDF804108A45D8D00127D6E7032804D3E3
:1036C000606810B1606918B13BE00120BDE8FC9F63
:1036D000206818B1FFF715FF002804DC21462846B2
:1036E00000F0EEF926E0E06810B1D4F810800EE0AA
:1036F000A87F0007E88E00D50C384FEA40081FFA73
:1037000088F003F0A0FAE06068B1C4F81080424687
:10371000E1682068FFF7D3FE00280DDA214628462D
:1037200000F0CEF9D1E708EBD8704FEA6008B8F1A5
:10373000640FE4DC0020C9E76061E1686160E16179
:10374000606294F82C000028B5F8660011D0ADF83E
:103750000000E2696168DFF84CA74FF0010B04F14B
:103760002E088A4248D9521A82421EDDADF8000066
:103770001DE06169884202D2ADF8000001E0ADF8B9
:103780000010A87F0007E88E00D50C38BDF80010A7
:1037900080B2B1EB400F05D94FF6FF7101EA40004E
:1037A000ADF800000023616846E1ADF80020A87F75
:1037B0000007E88E00D50C38BDF8002080B2B2EBCF
:1037C000400F05D94FF6FF7202EA4000ADF8000045
:1037D00001236A462846FFF7E7FE060008D1BDF838
:1037E000000061680127014461606169081A606135
:1037F000B5F8660000287DD0EDE0BDF80020002A75
:10380000F9D094F85012052910D2DFE801F0031026
:103810002963B200E1690A783C2A03D184F850B2E6
:10382000A4F828B0401E491CE1616062D3E0218DFC
:1038300005290AD0E269DAF8003092F800C05B5C32
:103840009C4506D1491C218505E0A4F8289002205A
:10385000BFE084F85092401E521CE2616062BAE000
:10386000218D49B9E3691A78202A52D0092A50D00B
:103870000A2A4ED00D2A4CD0E06900782D280ED0AF
:1038800020280CD009280AD00A2808D00D2806D0F4
:10389000202916D24A1C228501F8080013E081B1C4
:1038A000032084F8500284F82D1001F80890E16993
:1038B000484609782D2901D0208504E0A4F828B0D5
:1038C00001E084F85092606A401E6062E069401C2A
:1038D000E06180E0218D49B9E3691A78202A18D087
:1038E000092A16D00A2A14D00D2A12D0E26912F839
:1038F00001CB00E0B6E0DAF80430A0F101005B5C37
:10390000E2619C45606231D1022907D0491C2185C2
:1039100061E0401E5B1CE36160625CE0204600F0F9
:103920007EFCA4F82890042084F85002E06920620C
:10393000616888424FD9BDF80020401A904224DACD
:10394000ADF8000021E0012300E000236A4628468C
:10395000FFF72AFE06003ED1BDF80000616801278E
:10396000014461606169081A606134E084F8509232
:1039700031E06168206A88420ED9401A904204DA28
:103980000004000CADF8000004D094F82C000028CE
:10399000DBD0D8E70026DFE7208D618D884215D285
:1039A000091A914201DAADF8001004F14F01014407
:1039B00001236A462846FFF7F7FD06000BD1208D4C
:1039C000BDF8001001270844208504E04846A4F80B
:1039D000289084F85002606A10B1002E3FF40DAFB9
:1039E00094F85002042835D06168E069884231D9E2
:1039F000B5F86620401A904202DDADF8002001E0E3
:103A0000ADF80000AA7F1007E88E00D50C38BDF88D
:103A10000030B3EB400F09DD1007E88E00D50C38FD
:103A20004FF6FF7202EA4000ADF8000094F82C0057
:103A300008B1012300E000236A462846FFF7B4FDE1
:103A400040B9BDF800006168012701446160616907
:103A5000081A6061606928B92068FFF752FD0028E4
:103A60007FF73CAE384631E610B50C46010010D069
:103A7000087E401CC0B2087604280AD0086830B11D
:103A80002046FFF7B9FD10B1204605F018FC0020D4
:103A900010BD204600F014F8F9E710B503460020E9
:103AA00008700C461846FEF7F8FB2078002806D16F
:103AB000FD4841692046BDE8104007F0DBBA10BD63
:103AC00070B50546D1F8E4020C4648B1F64A00202C
:103AD000403AF54910703F2240392046FFF7DDFF9C
:103AE0000021284604F0C5FA0021284604F0C3FA54
:103AF0000021284604F0C3FA00221146284604F0AB
:103B0000C3FA0021284604F0B8FA2046FFF738FD32
:103B1000284603F0C8FF30B12846BDE870400422B3
:103B2000E24904F0B1BABDE87040FEF7ABBB2DE945
:103B3000F047DFF87C8304460D00D8F860004FF0B2
:103B4000000AC4F8D80207D0DAA1284607F054FAD0
:103B500048B1D8F83C0018E0D8F83C10C4F8D412AA
:103B6000D8F864004CE0D4A1284607F045FA10B11B
:103B7000D8F8400009E0D1A1284607F03DFA10B17D
:103B8000D8F8440001E0D8F83800C4F8D4023F2146
:103B9000284607F043FA070001D087F800A0002666
:103BA0002E21284602E0401C06462E2107F036FA58
:103BB0000028F8D1DFF8F892002509F1680908E03B
:103BC00059F83500314607F03AFA58B16D1C112DFD
:103BD00001D2002EF4D10FB13F20387056B1112D13
:103BE0000CD00FE009EBC500416858F82100C4F87B
:103BF000DC02F0E70320A4F8E202FBE4D8F834008A
:103C0000C4F8DC02A4F8E2A2A4F8E0A2F2E410B541
:103C10000446ABA02060FFF7F1FB00280DD1ABA05C
:103C20002060FFF7EBFB002807D1ABA02060FFF777
:103C3000E5FB002801D10021216010BD2DE9F743EB
:103C40004FF00008064680F82C80019891460178D4
:103C50002F2901D1417871B13F2107F0DFF905002B
:103C600001D005F8018B924F1C3F786978B3386911
:103C700068B3002421E08B4F0024083757F8340044
:103C8000FFF7BCFB050057F83400019003D007EBA9
:103C9000C400007944E0641C052CEFD301A8FFF7B1
:103CA000B6FF054686F82C8040E0386950F834109D
:103CB000019807F0C4F980B1641C78698442F4DB90
:103CC0007869844203D115B13F2005F8010C0198B1
:103CD000FFF794FB050012D016E02946304600F0AD
:103CE000E8FA0146386906F5257300EBC40006F5CD
:103CF0001572D0F804C02046E0470190E0E701A823
:103D0000FFF785FF050011D0694F002486F82C804D
:103D1000F037019857F8241007F06EF918B1012018
:103D200086F82C0002E0641C042CF2D34A46294693
:103D30003046019B00F0F0FABDE8FE8370B50C46FA
:103D4000594901250860608928B125B121465648A6
:103D5000FEF7A1FA05462046246803F045F9002C39
:103D6000F1D10DB1002070BD6FF00C0070BD70B5C9
:103D70000446D0F8E4020A890025904202D2C4F831
:103D8000E45202E0801AC4F8E4022046FFF7D6FFAE
:103D900020B9D4F8E40208B1002070BD42483F22A7
:103DA0004038014605702046FFF777FE2046BDE803
:103DB00070403D490022403940E72DE9F04106AC12
:103DC00094E8E000384C84E80700A381C4E9045675
:103DD0002783002030702046FEF75BFA05466069B5
:103DE000017811B93FA107F045F915B10020BDE8F0
:103DF000F0816FF00C00FAE72DE9F04F85B098469E
:103E0000109C0E9D9346A4EB08002A1A894638A1FF
:103E1000601C521EFFF794FB060040D0321B36A1F7
:103E2000601C521EFFF78CFB002838D010300A228D
:103E300036A10746FFF784FB88B34FF0000A80F8ED
:103E400000A0384607F02EF9071E7DDDA6EB08001E
:103E5000621C011DA94201DD284600E0001D1FFA79
:103E600080F8B01A011DA94200DC0D4601208DF832
:103E700010000D4804A940383F2480F800A00097A6
:103E80000391CDE90104ABB2554658460F99FFF7AF
:103E900094FFE8B3044900224039584639E064E011
:103EA000A80300200CCA00087C0B0020693A000817
:103EB000F000002034303400343030003530310030
:103EC0002F3430342E68746D6C0000002F34303481
:103ED0002E68746D000000002F3430342E73687427
:103EE0006D6C00002F696E6465782E68746D6C00CF
:103EF0000D0A0D0A00000000436F6E74656E742D8C
:103F00004C656E6774683A20000000000D0A0000DE
:103F100004E0FFF793FE05B0BDE8F08FD9F800404C
:103F2000CBF8E47208E02046A8EB010124681FFAF0
:103F300081F8056003F058F814B161894145F2D960
:103F4000C9F8005064B100E00CE0C8F1000001B213
:103F5000204603F04CF921465846FFF708FFDAE700
:103F60000020D8E76FF00D00D5E76FF00400D2E72E
:103F70002DE9F74F0468086884B00D4608B96868F1
:103F800018B16FF0070007B0C6E7FA486389D0E9B7
:103F90001061F31841F10001C0E91031A86898B12F
:103FA000214603F063F9A868016879B1018940F2FC
:103FB000FF32914200D3114688460A460023EE495B
:103FC00003F0CFF9EC4F04E0AC60ECE7B4F80A8002
:103FD00067684046B8F1070F64D30246AFF2D401D8
:103FE0003846FFF7ADFA00285CD04FF0000A0422F3
:103FF000E2A13846CDF800A007F045F840B105220F
:10400000E0A1384607F03FF820B10020387156E0B3
:10401000FC1C02E04FF0010A3C1DE11BA8EB010073
:10402000401E80B281460246D7A1601CFFF788FA85
:1040300006000BD14A46AFF22C11601CFFF780FA44
:10404000064601200090BAF1000F38D1301B401E07
:104050001FFA80FB36B3A64224D9002004F10109DF
:104060002070494609F80B00BAF1000F14D0CDF8C2
:104070000080CDE9019605F108013B462A460698E5
:10408000FFF7BAFE20B120212170317009F80B1022
:1040900010F10E0F13D076E7009A07B02846BDE85E
:1040A000F04FCBE5A86803F0D2F8A9680989B1F50B
:1040B000806F04D20A2802D86FF0040063E76FF023
:1040C0000D0060E7002801D0FFF75ABA704710B51D
:1040D0000A46010004D0002008761046FFF78CFA4B
:1040E000002010BD2DE9FF41044602980E466FF0F6
:1040F000090563B130B10189304603F000FD029833
:1041000002F072FF21463046FFF7DAFC28E0002873
:10411000F8D0002CEFD00189304603F0F0FCD4F841
:10412000E402002750B1277620460299FFF71FFED0
:1041300019E021463046FFF75FFA11E0206828B900
:104140003246214602A8FFF713FF0546681D05D039
:10415000A06810B102F048FFA76025B10E35D1D09C
:10416000002004B043E6D4F8E4020028E1D0F7E7E9
:1041700070B580480D46016B491C01632846FEF767
:104180007FF840B30121284603F0F1FE4FF43A7660
:10419000304602F058FD040005D0314606F015FF08
:1041A0000320A4F8E202210018D0284603F061FFA2
:1041B0007649284603F05FFF7549284603F05FFF04
:1041C00004227449284603F05FFF7349284603F030
:1041D00054FF002070BD6FF00C0070BD4FF0FF3039
:1041E00070BD10B56D4C207828B1A069BDE81040B5
:1041F0006B4903F047BF6B4800F0F4F801202070D2
:1042000010BD66480021806903F03CBF634BD96054
:10421000C3E901027047614AC2E9040170472DE910
:10422000F0415E4E054600F12E07716800F14F081F
:1042300081B1F06870B1B06860B1002407E0F06847
:1042400050F82410384606F0FAFE68B1641CB068D5
:104250008442F4DB384606F0EBFEB0F5F37F0AD873
:10426000384606F0E5FE08E073684FF400724146F8
:10427000204698471BE040F2E710044612224AA16C
:10428000404606F089FE2246394605F1610006F0F7
:1042900083FE4AA128190A6840F8612F8988818025
:1042A0003E2181710021C171404606F0C1FE688542
:1042B0009DE52DE9F047814691B1087880B1002550
:1042C0000C462F4609EB8506A04626212046C6F857
:1042D000544206F0A3FE28B100F8017B044608E032
:1042E00000208AE42021404606F098FE00B10770C5
:1042F00000243D21404606F091FE20B100F8017BEC
:10430000C6F8940201E0C6F894726D1C102D01DA13
:10431000002CD7D1284670E470B51D460446002312
:1043200039B3238584F850320868E06148686062D8
:10433000086821602062086860604E7E0EB163618B
:1043400001E04E6866612376097EF9B3FAB31DA1D8
:104350006269FFF7F5F838B16168401A001D014441
:1043600061606169081A6061206878B3007E68B393
:1043700036E02DE0A80300203C07002047455420EC
:1043800000000000504F535420000000E54000089A
:10439000C5400008693A0008CF400008D40000205A
:1043A00071410008B4CA00083C623E2A2A2A554ED0
:1043B0004B4E4F574E205441472000002A2A2A3C9A
:1043C0002F623E000D0A0D0A0000000004E007E025
:1043D000236063606361237629462046FFF7A7FBCD
:1043E000002070BD70B5054603F041FE0C4C012164
:1043F000A06103F0BCFD0B482946B0F84A20A06933
:1044000003F0A8FCFF21A06903F0E1FC0146A061D4
:1044100003F02FFEA069BDE87040034903F032BEEF
:10442000D4000020A80300207141000870B50021CD
:10443000CB4DCC4C0B4601EB411205EB8202824284
:1044400007D18367C0F880302678761E267082F800
:104450006430491CC9B20429EDD370BD7047C1480E
:104460000178002901D001214170704770B50446E0
:10447000806F0D4678B1002103F0FDFD0021A06F93
:1044800003F0FBFD00221146A06F03F0FDFDA06FBD
:1044900008B103F008FBA06F02F05BFBB248C169F2
:1044A000491CC16115B18169491C81612046FFF732
:1044B000BDFF29462046BDE87040FDF7DEBE70B561
:1044C00005461BE00123616804F012FD20B1401C89
:1044D00001D1C5F8804070BDA3486289D0E9083198
:1044E0009A1841F10001C0E908212068C5F8800050
:1044F00008B102F0B5FE204602F076FDD5F8804006
:10450000002CE8D0A86F6289B0F866108A42D9D929
:1045100070BD10B50446FDF7B1FE2046BDE8104061
:104520000021A3E710B570B1D0F8801011B1FFF7EA
:10453000C6FF06E090F87C10032902D10121FFF7A5
:1045400095FF002010BD084603F0D9FB6FF009006D
:1045500010BD10B5D0F8801009B1FFF7B0FF0020F2
:1045600010BD2DE9F0411F461500884606461FD0B4
:10457000298940F2B450814213D87B482C46D0E9B7
:104580000A32591842F10002C0E90A12628922B1C6
:10459000238930466168FDF772FE2468002CF5D14E
:1045A00035B1AFB1284602F01FFD3846BDE8F081B5
:1045B000032086F87C00D6F8800020B13046FFF753
:1045C0007EFF0020F2E701213046FFF74FFFF8E7BA
:1045D0002989404603F093FA284602F005FDF0E7EA
:1045E00070B51600044604D00021FFF73FFF3046A7
:1045F00070BD012084F87C0082025C492046FDF7F2
:1046000020FE05002AD0594806F012FD81B203228F
:10461000002002F011FDC4F880000028E7D02046F9
:10462000FDF72AFE2A465149D4F8800002F0CCFE5C
:104630004F49A06F03F01FFD4E49A06F03F01DFD11
:1046400001224D49A06F03F01FFD4C49A06F03F0FC
:1046500016FD2046FFF733FF002070BD01212046E4
:10466000FFF704FF6FF00C0070BD2DE9FF4FDFF87E
:10467000F48081B01D4698F80000DDF838901646A9
:104680000F466FF00C0B28B198F8010010B1FDF740
:1046900050FD63E0019806F0CBFC642804D36FF072
:1046A0000D0005B0BDE8F08F00202D49824600EBDB
:1046B000401201EB820292F86420BAB3401CC0B2EF
:1046C0000428F4D3544694B303F0D1FCA06778B324
:1046D0004FEA096040EA054040EA0620384300906E
:1046E00084F8657084F8666084F8675084F8689090
:1046F0000F98A4F86A0084F86CA0109860672046B0
:10470000019906F0B7FC2146A06F03F0B2FC1B49EB
:10471000A06F03F0B4FC1A4BA06F69460F9A03F028
:10472000ABFB2046FDF7A7FD0020BAE701E00FE054
:1047300011E000EB401001EB8004012284F86420BA
:1047400098F80000401C88F80000C4F87080BAE7B0
:104750004FF0FF30A5E72046FFF768FE5846A0E778
:10476000980F0020F0010020A8030020980B0020E3
:104770006345000853450008254500081345000817
:10478000E145000810B586B002F0CEF902F0E4FA77
:1047900002F01DF8002003900490604A60490590E3
:1047A0008DE8070005AB04AA03A95E4802F060FB90
:1047B0005C4802F081FB5C4800685C4C1128594859
:1047C0000BD002F07CFB05202070FDF78AFD5849D4
:1047D000544802F0FEFB06B010BD10F8351F41F042
:1047E000100101704F4802F0B6FB01202070EEE787
:1047F00000F05DBC4B4806F001BB7FB54B4C00257B
:104800002078012814D002281AD14649486820612E
:10481000B8B103202070084601F0EDFB2069030EBB
:10482000C0F30742C0F307210124C0B200942FE077
:10483000022020703B4801F085FD2561FEF7F8FB62
:104840007FBD486A407B0428FAD90420207035488F
:1048500001F0D1FB374C03AB02AA2078D4F8011049
:1048600040EA01200190A07AD4F80B1040EA012020
:104870000290A07BD4F80F1040EA0120039001A918
:10488000284802F0E6FA0095E378A278617820786B
:10489000FDF70BFD7FBD31B5244C00986168401ACF
:1048A000FA2803D30098606003F0B3F90098A16878
:1048B000411A41F28830814203D30098A06005F08C
:1048C00011FF0098E168401AB0F57A7F02D3012009
:1048D00000F0B0FE00986169401AB0F5FA7F0ED37F
:1048E0000098606101F01EFB2078032807D0207833
:1048F000042804D02078052801D0FFF77EFF009817
:10490000A169411A4EF66020814205D30098A0614A
:10491000BDE8384001F0D9B938BD000089AB0008C6
:1049200023AE0008A811002020020020F40100207E
:10493000BB560008A803002010B501214C062046F4
:10494000FBF731FE2046BDE810400021FBF72BBEEF
:10495000012101600021416081604FF48042C1600B
:10496000C0E90412D2108161C0E90712416281627C
:10497000C1620163416340228163C0E90F122022BA
:10498000C0E91121C1640165416581658022C1656D
:10499000C0E918128166C16601674167D204816768
:1049A000C0E91F125210C0E921211311C0E92331BF
:1049B000C0F89410C0F89810C0F89C10C0E92812F4
:1049C0005212C0F8A8209201C0F8AC205212C0E9DF
:1049D0002C21C0F8B810704738B500230093F94B6C
:1049E0001C694FF6FF7504F01C0405EAC020204343
:1049F0004FF4F86404EA8111014341F003005A6165
:104A00001861F1490098401C00901869C00702D055
:104A100000988842F6D30098884201D1002038BD22
:104A2000012038BD18B500220092E64A13694FF6FE
:104A3000FF7403F01C0304EAC02018434FF4F8632A
:104A400003EA8111014321F0020040F001001061EE
:104A5000DD490098401C00901069C00702D0009802
:104A60008842F6D30098884201D1002018BD5069D1
:104A700080B218BD2DE9F04186B000270446012020
:104A80000097D04ECDE900073069884620F01C051C
:104A900002A8FBF7C1FCCD490398CD4A01449142DD
:104AA00002D245F0080516E0CA49CB4A01449142BA
:104AB00002D245F00C050EE0C849C94A01449142B2
:104AC00009D3C8490844C849884202D245F00405C0
:104AD00001E045F0100535614FF4004200214046E9
:104AE000FFF77AFFA0B1FF2000F03AFD206878B30D
:104AF000B54D01980121401C01904046FFF792FFFF
:104B0000400702D40198A842F3D30198A84201D1EA
:104B1000009730E04FF48052002140460197FFF7A4
:104B20005BFF00B9009701980121401C01904046AD
:104B3000FFF778FF800602D40198A842F3D30198CA
:104B4000A842E5D021464046019700F08FFD10E0D5
:104B5000FFE7206A6169C00840EA510082B2002183
:104B60004046FFF739FF00B9009740F6FF7000F0AC
:104B7000F7FC009820B94FF400602062C00060612B
:104B800030689A490840D4E901121143E26854F8A8
:104B9000103F1A43114362681143A2681143E2684F
:104BA00011432269114354F8142F114362681143D1
:104BB000A2681143E2681143226911430143316045
:104BC0003568012000F0CCFC3560F4E905010843AC
:104BD000D4E902121143084321690843616908437B
:104BE000A1690843E169084370607568012000F01D
:104BF000B7FC7560206AB060606AF060B0694FF61B
:104C000041710840D4E90B121143238D626B42EAD3
:104C100003421143A26B1143E26B11430143B161A3
:104C2000B569012000F09CFCB561D4E9100108438E
:104C3000F061F569012000F093FCF5616C4DA96904
:104C40006C480140D4E912021043D4E914231A43FA
:104C50001043A26D1043E26D1043226E1043626E4A
:104C60001043A26E10430843A861AE69012000F012
:104C700077FCAE61D4E91B010843616F54F8782FCB
:104C800011430843616840EA8100A168084340F489
:104C9000000028602C68012000F062FC2C6028686D
:104CA00040F0800028602C68012000F059FC2C6046
:104CB0000098012800D0002006B0BDE8F0814C49E2
:104CC0000028886902D040F0020001E020F00200D4
:104CD0008861704746490028886902D040F4005036
:104CE00001E020F400508861704738B5404CA0695D
:104CF00040F48010A061A0690090012000F030FC19
:104D00000098A06138BD38B500212E4C00910028D4
:104D1000206802D040F0040001E020F00400206090
:104D200020680090012000F01BFC0098206038BD36
:104D300038B50021234C00910028206802D040F0B3
:104D4000080001E020F008002060206800900120A9
:104D500000F006FC0098206038BD10B50120FFF778
:104D6000E7FF0120FFF7CFFFFFF7BFFF0120FFF7AD
:104D7000B1FFBDE810400120A1E710B50020FFF70A
:104D8000A9FF0020FFF79BFF0020FFF7BCFFFFF704
:104D9000ACFFBDE810400020CAE70A49002089693D
:104DA000C90700D00120704738B5064CA06940F013
:104DB0000100A061A0690090012000F0D1FB0098E3
:104DC000A06138BD00800240FFFF030000D3CEFE8B
:104DD000C0E1E40040F1E9FD40787D0100796CFC20
:104DE000005A6202001F0AFA80F0FA020F8120FFC7
:104DF00000900240233FDEF838B50021F64C0091C8
:104E00000028A06902D040F0010001E020F001007C
:104E1000A061A0690090012000F0A2FB0098A061B1
:104E2000CFE7ED4A01460020926B0A4200D00120F4
:104E30007047E94A01460020926B0A4200D00120E7
:104E40007047E54A0029D16B01D0814300E001435E
:104E5000D1637047E04B8A88184402640A78D1F81D
:104E6000011042EA012141647047DB4A0244106CA0
:104E7000030A4B710871506C020ECA70020C8A70E2
:104E8000020A4A700870704738B500220092D24A70
:104E90008418206C11B140F0004001E020F0004087
:104EA0002064206C0090012000F05AFB00982064E0
:104EB00087E738B500220092C74A84180829206C79
:104EC00002D040F0804001E020F080402064206C5F
:104ED0000090012000F044FB0098206471E738B591
:104EE0000D46BD494418206C20F07C502064206C95
:104EF0000090012000F034FB00982064206C2843CF
:104F00002064206C0090012000F02AFB00982064AF
:104F100057E730B5B14B59680A68C2F30D449A6837
:104F2000156812689268C9685960241F8560C0E9D5
:104F3000004230BD38B5A94B00240094D3E90121CB
:104F400017E06D1C00951568AD0507D51568ED05D2
:104F500004D40A6001228A605A6808E01568ED05E9
:104F600011D41568AD050ED48D686D1C8D60D268A6
:104F70005A601568002D02DB009D042DE1D304600A
:104F8000446084601DE74A608C68641C8C608C6897
:104F9000012C00D10A605C682268C2F30D458A6862
:104FA0002D1F012A02D90A68926800E0A2680968E8
:104FB000E4685C600560C0E9012102E7F0B5874E56
:104FC000002231680B68002B01DA0020F0BD40F2AE
:104FD000F454A04215D9B0FBF4F5B0FBF4F304FB94
:104FE000150505B15B1C012B0BD0C3F10107C7EB05
:104FF000C71707EB470700EB87005D1EC0F30C00E7
:1050000023E00A6842F040520A60C0F30C00486096
:10501000086840F000400860C96818E00F6827F091
:1050200040570F601AB90F6847F080570F604C6007
:10503000AA4204D10F6847F000570F6048600F681C
:1050400047F000470F60C968521C9A42E6D3644893
:1050500031604169490703D5042141610021416064
:105060000120F0BDF0B55D4F00234FF0004C44F23D
:10507000F45E561E786013E000EB4314C4F800C0E1
:10508000C3EBC31505EB450501EB8505C4E901E557
:10509000B34203D204F12005E56000E0E0605B1C50
:1050A0009342E9D34E49C8604E48B860F0BD4B4AC0
:1050B00051680B681046002B80680DDB0B68DB0520
:1050C0000AD583685B1C83608368012B00D1016073
:1050D00051684160012070470B68002B0DDB0B68A5
:1050E0009B050AD50B68DB0507D4016000214160F0
:1050F000012181605068C0680CE00B68002B0ADB5E
:105100000B689B0507D40B68DB0504D483685B1C24
:105110008360C868506000207047F0B52F4C0023B2
:105120004FF48017561E206011E000EB43142760F7
:10513000C3EBC31505EB450501EB8505A560B3423F
:1051400003D204F12005E56000E0E0605B1C9342BF
:10515000EBD323490861F0BD0246002012680A42E1
:1051600000D0012070470068C0F3C3007047016899
:1051700041F00041016070470029016802D041F010
:10518000804101E021F080410160704702680A43DC
:105190000260704702680A43026070470029016894
:1051A00002D021F0006101E041F000610160704730
:1051B0000029016802D041F4801101E021F480113E
:1051C000016070470029016802D021F0806101E090
:1051D00041F08061016070470080024010020020B1
:1051E0000090024084420020436841EA02410B43A0
:1051F000436070470246002012680A4200D0012036
:1052000070470246002012690A4200D00120704710
:10521000016841F00041016070470068C0F30D4033
:105220007047426811B122F0004101E042F00041B4
:1052300041607047406811B1C0F30C407047C0F343
:105240000C00704702680021002A08DB0268120483
:1052500005D40268D20502D50068C0F30D410846A6
:10526000704738B50021C14C00910028206802D059
:1052700040F0800001E020F0800020602068009075
:10528000012000F06DF9009820609AE5B7480168A8
:1052900041F0010101607047B44900200968C90765
:1052A00000D001207047B14A0146002052690A42ED
:1052B00000D001207047AD4948617047AB4A0029D2
:1052C000D16901D0014300E08143D1617047A74A11
:1052D0000146002052690A4200D001207047A349CC
:1052E00048617047A148406900F0010070479F483D
:1052F000406900F0400070479C4900208969C9025C
:1053000000D501207047994A01460020126A0A42DE
:1053100000D0012070479548006AC0F34A407047AA
:105320009248006A80B270479048806C70478F48FE
:10533000C06C70478D48006D70478C48406D704759
:105340008A4900204860704788490020886070477B
:1053500086494862704730B50C4605460021FFF784
:1053600061FB14B140F4804201E020F4804200214E
:105370002846FFF731FB002800D0012030BD38B5AA
:105380007B4CE06A40F00040E062E06A009001205F
:1053900000F0E6F80098E06213E5F8B50646002054
:1053A000734D0446009056F82400A862A86A009045
:1053B000012000F0D5F80098A862641C082CF2D3F4
:1053C000F8BD38B500216A4C00910028E06A02D08F
:1053D00040F4007001E020F40070E062E06A0090A8
:1053E000012000F0BDF80098E062EAE4604A01465E
:1053F0000020D26A0A4200D00120704738B500214F
:105400005B4C00910028E06A02D040F0040001E00B
:1054100020F00400E062E06A0090012000F0A0F8B3
:105420000098E062CDE438B50021514C009100288D
:10543000E06A02D040F0020001E020F00200E062E9
:10544000E06A0090012000F08BF80098E062B8E478
:1054500038B50021464C00910028E06A02D040F0A7
:10546000010001E020F00100E062E06A009001200C
:1054700000F076F80098E062A3E43D48D0F800110F
:1054800041F03001C0F8001170473948D0F80011E0
:1054900021F02001C0F80011D0F8001141F01001F6
:1054A000C0F80011704732490028D1F8000102D03D
:1054B00040F0080001E020F00800C1F8000170474A
:1054C0002B490028D1F8000102D040F0040001E08F
:1054D00020F00400C1F80001704725490028D1F8E8
:1054E000000102D020F0020001E040F00200C1F80B
:1054F000000170471E48D0F8001141F00101C0F8CA
:10550000001170471A4AC3000BD50029D2F80C11BC
:1055100020F0805001D0814300E00143C2F80C111B
:1055200070470029D2F8101101D0814300E00143F7
:10553000C2F81011704700210D4AC30002D5D2F8FD
:10554000043101E0D2F80831034204D0D2F80C2132
:10555000024200D101210846704705494058704772
:10556000044909684843401EFDD27047009002403C
:10557000008002401C000020944810B5016841F0F2
:1055800000710160016841F000610160016841F053
:1055900080610160FFF7D0F9FFF778FEFFF77CFE2E
:1055A0000128FBD08A48FFF7D3F9894801214FF43D
:1055B000007240F81C1B002140F80C1BE0E803219E
:1055C0005200416001618161C161016240F8102CAB
:1055D000D20313118365C0E91312016641660421E9
:1055E000C0E91B1289034167890181674912C167BC
:1055F0004900C0F8841001217548FFF73BFA75494E
:10560000486010BD10B5FCF7ADF800F0ABF8FFF73F
:10561000B3FF01210846FFF705FA6E4C400703D59A
:10562000606840F0100060600120FCF73AFE60689E
:10563000C0B210BD70B501210846FFF7F3F9654C03
:1056400010F0040F4FF00105607806D0002803D158
:10565000614801F090FC657070BD0028FCD0257099
:105660005D4801F0A9FC0020607070BD70B50C466B
:1056700010210120FFF7D6F943074FF400624FF0E5
:10568000000101D5226200E0216280074FF48043CF
:1056900001D5616100E06361504880F84C1080F8EA
:1056A0004D10656901219D4201D180F84C10236A9B
:1056B000934201D180F84D1070BD2DE9FF410024C7
:1056C0000646039490F83500454DC0063DD5404E42
:1056D000306820B34FF4805200210120FFF77CF99D
:1056E000404F03980121401C03900846FFF79AF9A8
:1056F000800602D40398B842F3D3354901200394BD
:10570000FFF7B4FF384A1068336A716919430143DF
:10571000116036480068401EFDD210681060FFF727
:105720001CFB0094019401200294287002AB01AA92
:105730006946294801F08DFB274801F00CFCFCF775
:10574000C5FD24480470BDE8FF81FFF716FB052066
:105750002870304600F04FFC1F4801F0B0FBFCF70A
:10576000C0FDF0E77CB519481430016841F4804170
:10577000016000200324CDE900041D4E03460222EF
:10578000D1013046FDF712FB0120FAF7D8FFFCF7F4
:1057900086FD002819D10B2500231A4686213046A4
:1057A000CDE90045FDF713FB00231A4632211148CD
:1057B000CDE90045FDF70BFB00231A464FF460517D
:1057C0000D48CDE90045FDF702FB7CBD30380240B5
:1057D000904200201C020020A8110020A8030020F5
:1057E000F4010020FFFF0300008002401C000020A5
:1057F00000000240000802400004024040BA704726
:1058000040BA704700BA704700BA7047002812D0FB
:10581000018B4369FF220B44491C018383F8F0206C
:10582000002205E043690B44491C018383F8F02002
:10583000018B4429F6D370472DE9F04116460C46FA
:1058400005000CD07CB100224FF49A71104601F093
:10585000F3FB206150B1627BFE4952B10CE06FF066
:105860000D00BDE8F0816FF00500FAE74FF0FF3062
:10587000F7E70A68521C0A60096821604068012144
:1058800060610170606900274170616995F82E00C0
:1058900088706069C7702068FFF7B4FF6169082EDF
:1058A000486060690781606947816069C76008D0A6
:1058B000042E06D0032E07D1207B052801D0042812
:1058C00002D161696868C8606069076160694761A1
:1058D00060698761002095F82E10814203D929184C
:1058E00091F82F1000E0002100F11C026369401CB8
:1058F00080B299541028EED3002000F12C01626987
:10590000401C80B257544028F7D3002000F16C01AE
:105910006269401C80B257548028F7D36169CE4831
:10592000C1F8EC0027830020626900F1F0015054B7
:10593000401C80B24428F7D301223521204600F0D4
:10594000E0FD3146204600F0D4FD002089E7F8B59F
:10595000446A0646002060620621204600F0F2FDFF
:10596000012221463046FFF767FF050030D10222B1
:105970003921204600F0C5FDB18D204600F0D1FD53
:1059800004223721204600F0BCFD0121204600F012
:10599000B0FD0321204600F0ACFD1C21204600F0A4
:1059A000A8FD0621204600F0A4FD2046FFF72EFFAB
:1059B000208BF03081B2206901F0F2FB0096432386
:1059C000A64A2169606803F04BFF204600F086FD7F
:1059D000607B401CC1B26173062902D2012088405D
:1059E00000E03C2000EB4001C1EBC0104FF6FF711E
:1059F00001EAC0004FF4FA7100F2F310B0FBF1F0CD
:105A000060832846F8BD70B5446A054608212046E3
:105A100000F098FD002204F12401284604F0BFFFA5
:105A2000607B40F2E731401C60734FF4FA70B1FBC9
:105A3000F0F0608370BD70B50646886A0C46002899
:105A400019D005F0F5FA002815D0318BA56AC1F1FF
:105A50004101884200D30846C4B222460C21304698
:105A600000F04FFD04E015F8011B304600F041FD49
:105A7000641EE4B2F7D270BD10B5028B44690B0E00
:105A80001444521C028384F8F030028B44690B0CDE
:105A90001444521C028384F8F030028B44690B0AD0
:105AA0001444521C028384F8F030028B436913447F
:105AB000521C028383F8F01010BDF8B5446A064604
:105AC0000121204600F03EFD032221463046FFF72B
:105AD000B3FE05004CD102223921204600F011FD11
